:020000041004E6
:100000000060002019060410371604103916041079
:10001000AA5555AA45554C420000000000000000BA
:100020000000000000000000000000003B1604106B
:100030000000000000000000F50304103D1604104D
:1000400045160410F7030410000000000000000033
:10005000AD160410F9030410AF16041005040410C3
:100060000000000000000000000000000000000090
:100070000000000007040410090404100B0404101D
:1000800000000000FB030410FD030410FF03041034
:100090000104041003040410F30304100D040410FD
:1000A0000000000000000000000000000000000050
:1000B0000000000000000000000000000000000040
:1000C000EFF31482EFF309811C4880F31488BFF327
:1000D0006F8FF0B543464C4655465E466746F8B4CA
:1000E000174CEFF30883236006B4164C2068164CB7
:1000F0002060164C2068164C2060164C2068164C68
:100100002060164C276800202060BFF34F8F30BF5F
:1001100027600B4C246884F3088882B003BCF8BCC9
:100120009846A146AA46B346BC46F0BC04BC80F340
:10013000098881F31488BFF36F8F10470000000017
:100140000800002004ED00E05819002024ED00E034
:100150005419002000E200E05C1900200800204053
:1001600002B4714649084900095C49008E4402BC4A
:100170007047C04603B47146490840004900095E13
:1001800049008E4403BC7047002243088B4274D35D
:1001900003098B425FD3030A8B4244D3030B8B4288
:1001A00028D3030C8B420DD3FF22090212BA030C91
:1001B0008B4202D31212090265D0030B8B4219D372
:1001C00000E0090AC30B8B4201D3CB03C01A524192
:1001D000830B8B4201D38B03C01A5241430B8B42DA
:1001E00001D34B03C01A5241030B8B4201D30B03C3
:1001F000C01A5241C30A8B4201D3CB02C01A5241EA
:10020000830A8B4201D38B02C01A5241430A8B42AC
:1002100001D34B02C01A5241030A8B4201D30B0295
:10022000C01A5241CDD2C3098B4201D3CB01C01AAF
:10023000524183098B4201D38B01C01A52414309B9
:100240008B4201D34B01C01A524103098B4201D3A7
:100250000B01C01A5241C3088B4201D3CB00C01A14
:10026000524183088B4201D38B00C01A524143088C
:100270008B4201D34B00C01A5241411A00D20146B1
:10028000524110467047FFE701B5002000F006F824
:1002900002BDC0460029F7D076E770477047C046D8
:1002A000437802781B021A438378C0781B041343F7
:1002B000000618437047C046030A4B7003021B0E2A
:1002C0008B70030E0870CB707047C04603005A78DD
:1002D0000078120202439878197900040243D87812
:1002E000000610435A7912020A43997909040A4315
:1002F000D979090611437047030A5370030C9370B0
:10030000030ED3700B0A53710B021B0E93710B0E6D
:1003100010701171D3717047024A13680133136072
:100320007047C04610030020C021074A074B084809
:100330005360036A09061B021B0A0B430362002376
:10034000936007331360704710E000E0FE7C00000C
:1003500000ED00E0124AD3691B061B0F4370D9B2AF
:10036000D369104A1B071B0F83700F4B1B68436038
:10037000934212D10D4B1A680D4B9A420BD10423B4
:100380000370002901D1012343700A4B9B8A01337A
:100390009B00836070470223F2E70123F0E7C04629
:1003A0000000904041A00002280090401C00001076
:1003B00044A000F200001040F0B5070085B001AC89
:1003C0000E0020001500FFF7C5FF23783B7063780F
:1003D0003370A3782B7005B0F0BD10B501F07CFC34
:1003E00010BD10B501F094FC10BD10B501F066FC15
:1003F00010BD70477047704770477047704770472F
:1004000070477047704770477047704770470000EB
:10041000F7B500211722012508001A4B9A811D8388
:1004200018611A8B002AFCD0962604001A6936023D
:100430000192019A96424441E2B2013189B2022A04
:1004400003D0F624FF34A14200D1F7BD002AE6D044
:100450001D8318611A8B002AFCD01C69019AA242E4
:100460000CD2019AA21A019E0194B60AB446060063
:1004700067469742464132000132DEE7019A121B7D
:10048000F1E7C04600001048002210B5104B995CFF
:10049000C8B2002917D11C2A14D82124023199543A
:1004A000511C5C54911C193C5C54D11C58549B1831
:1004B000802290219BB252021343C905CB60CB68C6
:1004C0001342FCD110BD995C01315218D2B2DEE763
:1004D00014030020002330B50E4AD15CCCB20029B1
:1004E00013D11C2B08D835250231D154591C555431
:1004F000991C03335054D4540222074B1A703332E0
:100500005A7000229870DA7030BDD15C01315B18EE
:10051000DBB2E2E7140300201C00002080220E4B17
:10052000520230B59CB211001443002806D090232B
:10053000DB05DC60DA680A42FCD130BD042598781E
:100540009978C0B2A94399709021C905CC60CC6854
:100550001442FCD19870F0E71C0000200123274AC8
:1005600030B5117A03240B4313720022244B85B05B
:100570001A6000F0F5FB6B4658805A880233002A57
:1005800003D1013CE4B2002CF3D11A881F2A32D9DE
:100590001B885B0510D401A8FFF7DCFE6B465A7977
:1005A0009B7912011A43174B1B681B0711D4112AA0
:1005B00002DD0120FFF7B2FF0122134B1A70FFF793
:1005C000A8FDBFF34F8F114B114ADA60BFF34F8F75
:1005D000FEE790250F4CED0528692368283B1B1A80
:1005E0001B02002BE8DD112A02DD0120FFF796FF38
:1005F00023686B60E0E7012005B030BD00002040BB
:1006000014000020C00000200C00002000ED00E0DD
:100610000400FA051800002010B5FFF79FFF01281D
:1006200013D1124A124B13498B4214D3124A134B63
:1006300013498B4212D30021124B134A934210D319
:100640000021124B124A93420DD3124B83F30888B8
:1006500001F0C8F910BD01CA01C3E5E701CA01C331
:10066000E7E702C3EAE702C3EDE7C04630710510D1
:10067000FC190020BC1A002004710510080000209D
:1006800034000020C0000020CC020020CC0200205A
:10069000FC1900200060002070B58AB003AC050092
:1006A0000E0019222000424901F016FB6846FFF7B0
:1006B00051FE002D5CD044233E4AA373117A433B84
:1006C0000B4313726C23E372513B23753A4B3B4A45
:1006D0001B68190C914208D17020E17D1B018143F8
:1006E000E175E17D03400B43E375354B1B68190C45
:1006F000914208D1302061791B0181436171617998
:1007000003400B4363712F4B1B68190C914207D1B7
:100710000321E27D0B408A43E275E27D1343E375DA
:100720000422E37A69469343E3726B465B788978E7
:1007300093400B43112B06DDE37D1A43E275E07D08
:10074000C0B2FFF7C7FE802390222404240C5B0272
:100750001C43D205D460D1681942FCD16B466A466D
:100760005B7892781B011343112B01DDFFF78CFEA0
:10077000154B1A8B002AFCD001221A8316329A815B
:1007800000221A61964209D090231021DB051869D6
:100790001A6942400A42FBD0FFF73AFE002D02D010
:1007A00015220A4B1A700A4B0A4A1A600AB070BD29
:1007B000BC6B051000002040E807001055AA00009F
:1007C000E4070010B0070010000010480000C0400F
:1007D00014000020CCBCECFC0822F8B5C027C021D6
:1007E0003B4B3C4D9A803C4A3F04136A09062B4020
:1007F0003B431362136AFF271B021B0A0B4313625E
:10080000C02292009446C020344B64469A58344E1D
:10081000BA430243C0201A511A590002324002431F
:100820001A51C12292009C58BC433F3F3C439C500C
:100830009C58C027344004439C509C583F042C4093
:100840009C509C582402240A0C439C500832944625
:1008500064469A58324002431A511A592A403A4380
:100860001A511A591202120A0A431A51C42292004A
:10087000944664469A58324002431A511A592A4003
:100880003A431A511A591202120A0A431A51C5223E
:1008900092009C582700FF24A7433F3C2743C024D5
:1008A0009F509F5824043E4030439850985805402C
:1008B0002C439C5098580002000A01439950012192
:1008C0000800FFF7E9FE074B074A1A6262B6F8BD57
:1008D00000001040FFFF00FF00ED00E000E100E03D
:1008E000FF00FFFF0000904066000E00024A138ADE
:1008F000DB07FCD57047C04600001040084B10B520
:100900001A68084B9A4209D13F22074B40061A81C8
:10091000000C2E3A98611A80FFF7E8FF10BDC04620
:1009200014000020CCBCECFC00001040084B10B5BB
:100930001A68084B9A4209D13F22074B80081A8156
:100940000C3A986119641A80FFF7D0FF10BDC046B9
:1009500014000020CCBCECFC00001040F7B503797B
:1009600001680193002B2BD18022D20553688B4361
:100970005360802200240F27D2050B000125E3409D
:100980002B420BD0E6B2A300072C24D83D009D409B
:10099000D66AAE43019D9D402E43D66201341A2C87
:1009A000EBD180234279DB05012A3DD1DA680A4385
:1009B000DA608279012A3AD19A6811439960F7BDC9
:1009C000019B062BD5D18022D20553680B4353607F
:1009D00000230193CDE708256D42AC46B44465463B
:1009E000072D09D83D00203B9D40166BAE43019D6D
:1009F0009D402E431663D1E7103E072E09D83D00D7
:100A0000403B9D40566BAE43019D9D402E43566337
:100A1000C4E73D00603B9D40168FAE43019D9D4065
:100A20002E43B6B21687B9E7DA688A43C0E79A68F8
:100A30008A439A60C3E70023036083808371704711
:100A40008023DB05D86370478023DB05186470477B
:100A50008023DB05DA69002902D01043D861704792
:100A60008243DA61FBE78023DB05986270478023CD
:100A7000DB051B6A1840431E9841C0B27047020054
:100A8000202330B5013BD55CCC5C281BA54201D1AD
:100A9000002BF7D130BDC02380211B061A680A4302
:100AA0001A601A688A431A607047C02301211B0626
:100AB0001A680A431A601A688A431A607047C0238A
:100AC0001B0618688007C00F70470000054B012007
:100AD0001B78002B04D1044B1868431E9841C0B208
:100AE0007047C04634030020000400C070B5294E92
:100AF00090B0040020220D006846310001F0ECF8AF
:100B000031002022203108A801F0E6F8012C1AD18A
:100B100008A92800FFF7B3FF1F4904220B7800281B
:100B200004DB13430B70200010B070BD93430B70B7
:100B30001A4B1A00ED1A2032E95802C39A42FBD12F
:100B400000241460EFE7022C0FD169462800FFF75C
:100B500096FF114A013C1378002802DB23431370EF
:100B6000E1E7A34313700E4BE3E7032C10D1694672
:100B70002800FFF784FF084902220B78002803DBD6
:100B800013430B70023CCEE793430B70054BD0E749
:100B90000124C8E7D56B0510340300206C0400C0A5
:100BA000900400C0B40400C0030001280DD0022846
:100BB0000DD00120032B07D1064A0023D05CC85476
:100BC0000133202BFAD100207047034AF5E7034A8E
:100BD000F3E7C046B40400C06C0400C0900400C039
:100BE000410010B50E48FFF7CFFAFE23421E1B024C
:100BF0009A4212D3022301200A4A0B491374136844
:100C000000020B401843106010BD5B00DBB24008CF
:100C1000FF28FAD80138C0B2EEE70223F8E7C04651
:100C20000024F40000004040FF00FFFF70B5040006
:100C300001264068FFF7D4FF0420104B21785A6842
:100C40003140890082430A435A604022A5781868DF
:100C50003540AD019043284318608020E1781A6840
:100C60003140C90182430A431A6061781A686138C9
:100C7000014082430A431A6070BDC04600004040F4
:100C8000E023DB000360014B4360704740420F00EC
:100C9000054B02225968002802D00A435A60704767
:100CA00091435960FBE7C04600004040014B98600B
:100CB0007047C04600004040014B98687047C046EE
:100CC00000004040034B1B7B1840431E9841C0B2BC
:100CD0007047C0460000404010B50420FFF7F2FF07
:100CE000012800D010BD014B9B68F6E70000404092
:100CF0000222084B084819780A4308491A700A7BEF
:100D0000D20704D502211A788A431A707047026804
:100D1000F5E7C046800040408C0040400000404065
:100D20000321044A084013680349C0050B400343EC
:100D30001360704700004040FFFF7FFE014BD86208
:100D40007047C04600004040044B1A6A012902D196
:100D500010431862704782431A62FBE7000090401C
:100D6000274B284A197A1289CBB292B200293CD17A
:100D700009201040093843425841112340011340D3
:100D8000112B01D12F33184321231340212B01D1E3
:100D90008023184341231340412B02D180235B0061
:100DA000184381231340812B02D180239B001843D9
:100DB00002231100FF331940994202D18023DB0046
:100DC00018431100104B1940994202D180231B0196
:100DD000184305231340052B01D110231843D24398
:100DE000930701D10823184370470120022BFBD041
:100DF0000220042BF8D0083B584258418000F3E70A
:100E0000000090400000104801040000024BC005A3
:100E1000C00D18807047C04600003040054B0028C8
:100E200005DA5B681840431E9841C0B270471B8BBF
:100E3000F8E7C0460000304001000A4A0A4810B5F1
:100E40001368046801209C4209D00848C05C013343
:100E5000087080210020C9008B4201D0136010BDB2
:100E60001060FCE73C070020380700203503002015
:100E7000094A03001168002901D10849116010686E
:100E80000749C3188B4205D90C220120054B40426B
:100E90001A6070471360FCE74017002040070020ED
:100EA00040170020EC1900200120404270478023A9
:100EB0009B0100204B607047012070470020704765
:100EC000F8B50E0014000025A54201DB2000F8BD96
:100ED000775D2020FFF7A2FF0128FAD0B8B2FFF714
:100EE00095FF0135F0E770B50E0015000024AC4207
:100EF00008D23019FFF7A0FF002801D10134F6E72E
:100F0000002CF4D0200070BD10B500F0E5FE10BD3F
:100F100010B500F0E1FE10BD10B50A00002100F090
:100F2000F7FE10BD10B5FFF7F7FF10BD07B50A2299
:100F300001AB1A705870997001201900073A00F03F
:100F400091F90EBD10B502212820FFF7EFFFFF2118
:100F50002920FFF7EBFF04212B20FFF7E7FF1121EA
:100F60002C20FFF7E3FF22212D20FFF7DFFF2020B9
:100F7000FFF779FD01212020FFF76AFD10BD1FB5A5
:100F80000B236A461373022302AC507321000093B3
:100F900003AA012000F01DF9207804B010BD000064
:100FA0001FB5064B03AA1B781370012300910100A3
:100FB000180000F00EF905B000BDC046596C0510D0
:100FC00013B542236C4623700D236070A1706846F0
:100FD0000521E270237100F0D3FD13BD70470000BE
:100FE000024BC046013B002BFBD17047A08601009D
:100FF0001FB558240B0003A90C70040C40BA48809C
:101000004C7002200092042200F04AF9FFF7E8FF3A
:101010001FBD0000F0B50026C9B007AC08223100A2
:10102000050020000427059600F072FED22322005E
:1010300023700220CA3B009705A900F0CAF8059B5F
:10104000013B033307D9C0233A001B03300005A935
:101050000593FFF7CDFF059B029358232370029B56
:101060001B0C6370029B1B0AA370029BE37000239E
:10107000E95CE21801331171FF2BF9D182222100C2
:101080000220520000F0EEF8041E1DD103AD28002E
:1010900000F0B2F9039AAB8805926A461383802365
:1010A00002985B005383000A094BC000C018082255
:1010B00005A9FFF79DFF029B04220133FF332000A7
:1010C00005A90593FFF794FF200049B0F0BDC04685
:1010D00000A9FFFF1FB5D22303AC2370030C40BA55
:1010E00063706080042300920220220000F071F8F7
:1010F000FFF776FF1FBD10B52130FF300822C0007A
:10110000FFF7E8FF10BD000030B5012185B00400F5
:101110001120FFF719FE02A8FFF78DFC0D236A4688
:1011200001250293093B938102A89573FFF716FCF2
:10113000164B6A460293062302A81373FFF70EFCB0
:101140000220FFF77DFC80200001FFF779FC802062
:10115000A840FFF775FC6846FFF792FDE02368465C
:10116000DB0000930194FFF761FD0020FFF7E6FD2F
:101170000020FFF7D5FDFFF7BBFDFFF7ADFD280011
:10118000FFF786FD002005B030BDC0460209000013
:1011900010B500290ED0012803D10130FFF750FC13
:1011A00010BD022802D180200001F7E70328F7D103
:1011B000FD30F3E7012803D10130FFF745FCEFE7ED
:1011C000022802D180200001F7E70328E8D1FD3092
:1011D000F3E7F7B507000C0015001E0008AB1B78FD
:1011E00001930120FFF76EFD0028FAD00020FFF7E1
:1011F00097FD00213800FFF7CBFFAE19B5420ED1A5
:10120000019BE518AC421BD11020FFF75BFD0128C4
:10121000FAD038000121FFF7BBFF0020FEBD0120FE
:10122000FFF750FD0028FAD02878FFF73FFD042093
:10123000FFF748FD0028FAD0FFF73EFD0135DDE756
:101240000120FFF73FFD0028FAD00020FFF72EFD18
:101250000420FFF737FD0028FAD0FFF72DFD20709E
:101260000134CFE770B5060001200C001500FFF730
:1012700057FD00213000FFF78BFF6519AC420AD102
:101280001020FFF71FFD0128FAD030000121FFF7E1
:101290007FFF002070BD2078FFF708FD0134EDE7E7
:1012A000F7B506001F0008AB1B8801200C001500D5
:1012B0000193FFF735FD00213000FFF769FF651945
:1012C000AC420ED10024019B9C420FD31020FFF7AB
:1012D000F9FC0128FAD030000121FFF759FF002066
:1012E000FEBD2078FFF7E2FC0134E9E7385D013408
:1012F000FFF7DCFCE4B2E6E710B5FFF723FE10BD14
:10130000F7B5002504002E000A2720003900FEF75B
:10131000C1FF2000CBB239000193FEF735FF0199E0
:10132000C4B2B14004360D43EDB2102EEDD1280009
:10133000FEBD07B5122201AB1A700F3A58709970B2
:1013400010001900FFF78EFF07BD1FB513236A4673
:101350001373012302AC50732100009303AADB181E
:101360000320FFF736FF207804B010BDF0B50E1C47
:10137000090A85B0CBB2070E050A040CC0B200936F
:10138000FFF7BEFFEDB201902800FFF7B9FFE4B20E
:1013900005002000FFF7B4FF04003800FFF7B0FF9E
:1013A000F6B207003000FFF7ABFF06000098FFF72A
:1013B000A7FF002100900120FFF7BBFF0199072044
:1013C000FFF7B7FF29000620FFF7B3FF2100052034
:1013D000FFF7AFFF39000320FFF7ABFF310002201A
:1013E000FFF7A7FF8021009B494219430120C9B2A2
:1013F000FFF79FFF05B0F0BDF7B504000820FFF729
:10140000A4FF0720FFF7A1FF07000620FFF79DFFBD
:1014100006000520FFF799FF05000320FFF795FF61
:1014200000900220FFF791FF01900120FFF78DFF50
:101430000A2301000F203A095A430740D7192770A1
:101440000D2732093A405A43064096192A095A4351
:1014500005405519009AA5709206920F5A43009DB7
:10146000667005405219E270019A019D12095A43B3
:101470000540521922714A06520F534308401B1867
:1014800020006371FEBD10B580210120FFF751FFE0
:1014900000210820FFF74DFF10BD10B508F022FE17
:1014A00010BD10B508F0D6F910BD10B508F0DCFC81
:1014B00010BD7FB50BAE368808AC09AD2D882488E9
:1014C00003960A9E01950296009408F0FDFE7FBDEA
:1014D0007FB508AC20CC0AAE247836780194029609
:1014E000009508F031FE04B070BD10B502F048F967
:1014F00010BD10B50AF0A4F910BD0120704710B559
:1015000001F02EFF10BD10B50CF06EFA10BD10B535
:101510000AF05AF810BD10B50DF012FB10BD10B551
:1015200002F004F910BD10B502F008F910BD10B5B5
:1015300006F0FEF810BD10B50FF044FA10BD10B55E
:101540000EF064FF10BD10B50FF0C4FA10BD10B559
:101550000EF083FF10BD10B507F084FE10BD10B56E
:1015600007F090FE10BD10B507F098FE10BD10B545
:1015700009F002F810BD10B505F0B0FE10BD10B5B1
:1015800009F01CFA10BD10B509F046F810BD10B5F1
:1015900009F056F910BD0120704710B504F098FF0E
:1015A00010BD10B511F0FEFA10BD10B511F0CEFA55
:1015B00010BD10B511F0B2FA10BD10B511F08CFCD1
:1015C00010BD0120704710B511F00CFD10BD10B515
:1015D00011F0CEFC10BD10B50FF034FF10BD10B5EA
:1015E0000FF04AFF10BD10B50FF0C4FF10BD10B5CD
:1015F0000FF0BAFE10BD10B50FF0CEFE10BD10B545
:101600000FF0ECFE10BD10B50FF04CFF10BD10B583
:101610000FF062FF10BD10B50EF054FF10BD10B5F5
:101620000EF024FF10BD10B50FF014FB10BD10B567
:101630000FF00CFA10BD7047FEE7704710B5FEF7CB
:101640006BFE10BD802010B54001C0B0FFF70FFA4F
:1016500001280DD1022100220800FFF7B1FCFFF79D
:101660004BFE0B20FFF78BFC80204001FFF7FBF9BE
:101670002020FFF7FCF90400012815D10221020007
:101680000800FFF79DFC0B20FFF779FCFF2168465F
:10169000FFF786FC21006846FFF7BCFC0B20FFF734
:1016A0006EFC2020FFF7DFF940B010BD704710B589
:1016B00005F0AAFE10BD00000022F0B51600084C8F
:1016C000084D914200DCF0BD2378875CEF54013374
:1016D000DBB2632B02D823700132F2E72670FBE7FE
:1016E000441700206019002013B507246846220023
:1016F000034900F0F1FA2100684600F041FA13BDF9
:10170000156C0510F0B500254726202785B000246C
:10171000A8B22100FFF7EFFC144B6A4600936B461A
:101720001E7123780D215371637868469371A378F5
:10173000D371E37813722379537263799372A37927
:10174000D372E379137300F01BFA00F0C5F9084B6C
:101750001B683B4206D1FA2301359B009D42D6D13E
:1017600005B0F0BD01F0C8FBF1E7C046FD00B209CD
:10177000541A002013B507240549220009196846A8
:1017800000F0AAFA2100684600F0FAF913BDC0463D
:10179000156C051073B56E4606AC257807AC247839
:1017A000717035713070B270F37074710098019976
:1017B000FFF7DCFD73BD000010B586B001AC200062
:1017C000FFF71AFE0A4B03A8039343230371237800
:1017D0000B21437163788371A378C371E37803723B
:1017E000237943726379837200F0CAF906B010BDA1
:1017F000FD00B20737B5040000784138062807D845
:10180000FEF7AEFC0406150A18060700FFF76CFF8A
:1018100037BDFFF777FFFBE7A5792379E278A17859
:101820006078019564790094FFF7B4FFF0E7FFF763
:10183000C3FFEDE7FFF79EFFEAE70000F7B5244B93
:1018400000AF1978042931D9224B00251A007B609A
:101850008D422BDA13786E1CFD2B36D1E81C8142A9
:1018600033DD5378002B30D19478B22C2DD1D4783D
:101870002018884229DA6E46E21DD208D200B21A38
:101880009546684613492A1D52189C4210D12100E2
:10189000FFF7B0FF00220E4B04341B786519EDB240
:1018A0005B1B9A4208DB0A4A1370B546BD46F7BD7A
:1018B000D15CC1540133E8E779687868495D013249
:1018C0000170010001317960EBE735000132BFE7BB
:1018D0004417002060190020F0B510242A4D93B061
:1018E0002900220006A800F0F7F9291922000AA809
:1018F00000F0F2F92900220020310EA800F0ECF9E6
:10190000224D2200280006A9FEF767FD204F29007E
:10191000062301220220009701F0B5FA051E05D02A
:101920001C4800F089FA472013B0F0BD1A4E22007F
:101930000EA93000FEF751FD184B3888059301239E
:10194000029504930195320002210394009413330D
:1019500001F07AFA051EE3D122000AA93000FEF751
:101960003CFD0F4B388805930123049302930B33FE
:1019700000933200022103940195083301F064FAC8
:101980000028D1D0CCE7C046236C0510DA1900201E
:10199000D61900205B6C0510C4190020D419002052
:1019A000D8190020030010000B4A10B5128801322C
:1019B000934203D1C9B2FFF77FFE10BD074A1288D8
:1019C00002329342F9D10378012BF6D1044A033352
:1019D00011680B431360F0E7D8190020D4190020D8
:1019E000541A002010B5FEF7F7FEFEF79DFC0E48D6
:1019F00001F0C4FA011E03D00C4800F091F9FEE793
:101A00000B48FFF781FBFFF73EFD00F021F8011EB8
:101A100003D0084800F084F9FEE701F06DFAFFF703
:101A20000DFF00F0EDF8F8E7E06C0510836C051091
:101A300080841E00B46C0510BFF34F8F024B034A25
:101A4000DA60BFF34F8FFEE700ED00E00400FA0517
:101A500070B586B006221F4904A800F03DF90621A2
:101A6000002004AA01F043FA0400051E08D0030078
:101A7000052201210020FFF7B1FA200006B070BD59
:101A80000421012001F02FFA01F018FA041E02D0FF
:101A900003002A00EDE7012203201100FFF790FA6E
:101AA0000E236B44019303AB00930A232100082209
:101AB00001206B4401F07CF9041E02D003000222D5
:101AC000D7E7032201211000FFF77AFAFFF704FF9E
:101AD0000400D2E7536C0510F0B5224C87B02368A0
:101AE0005B0632D5202322681A422ED105931E4D63
:101AF0001E4A2F881388BB4207D8402123688B4396
:101B00002360002313802B801FE0DB1B142B00DDE0
:101B10001423174A17491088174A9EB21288DBB25D
:101B20000492164A0988944602930023674401935D
:101B3000049A80B203970096013301F0C3F9642838
:101B400005D1202322681343236007B0F0BD00288D
:101B500003D12B88F6182E80C9E72368059A134312
:101B60002360C4E7541A00204819002046190020B9
:101B70004A190020D6190020D4190020451700204A
:101B8000F0B5002401252200AC460B4E0B4F3388E4
:101B90009D18ADB291420ADC5B189BB2002C00D0BC
:101BA00033804023064A11680B431360F0BD845C08
:101BB00001327C556446EBE74619002045170020AA
:101BC000541A002030B50A248DB009AD2200280037
:101BD0000A4900F081F80021080004F0BBFD002054
:101BE0009022030011000690059004900390029546
:101BF0000194009001F0F4F80DB030BD146D0510A3
:101C000070B50225054C23682B4204D0FFF7DAFF9C
:101C10002368AB432360FFF75FFF70BD541A0020B9
:101C2000034B044A1980012311680B43136070476A
:101C30004A190020541A00200121104B1A688A43C7
:101C40001A60022219680A4304211A601A688A433A
:101C50001A601A681C318A431A601A6808490A40D7
:101C60001A601A6807490A401A601A6806490A4049
:101C70001A601A6805490A401A607047541A002011
:101C8000FFFEFFFFFFFDFFFFFFFBFFFFFFF7FFFF73
:101C900010B50800029A1900FFF784FE10BD00007D
:101CA0002021024A13688B4313607047541A0020A6
:101CB0007047704710B500F018F810BD30B500241B
:101CC0000139A24201D1002005E0035D01340D5D20
:101CD000AB42F6D0581B30BD002310B59A4200D15C
:101CE00010BDCC5CC4540133F8E710B5884202D96A
:101CF0008B18984203D3002307E08B5C8354013A8E
:101D0000FBD210BDCC5CC45401339A42FAD1F8E73F
:101D100003008218934200D1704719700133F9E72C
:101D20000FB40B4B13B51C68002C05D0A369002B16
:101D300002D1200000F086FA05AB2000049AA168C9
:101D4000019300F05FFC16BC08BC04B01847C04605
:101D5000581A002070B505000E00002804D08369D1
:101D6000002B01D100F06EFAAB69AC68002B02D1F8
:101D7000280000F067FA2D4B9C4222D16C68636EFC
:101D8000DB0705D4A3899B0502D4A06D00F0FBFA04
:101D9000A3891B0702D52369002B29D12100280024
:101DA00000F0AAF8002823D001256D42636EDB07FE
:101DB00005D4A3899B0502D4A06D00F0E5FA2800A4
:101DC00070BD1B4B9C4201D1AC68D8E7194B9C42BB
:101DD000D5D1EC68D3E70136A360002B04DAA26901
:101DE0009A4216DC0A2914D023685A1C2260197002
:101DF000A3683178013B0029EDD1A360002B0FDAF5
:101E0000280022000A3100F021F80A25431CCDD118
:101E1000CAE72200280000F019F8431CE8D1C3E704
:101E20000A2523685A1C22601D70BFE7446D051007
:101E3000646D0510246D051010B5034B0100186882
:101E4000FFF788FF10BDC046581A0020F8B50500FE
:101E50000E001400002804D08369002B01D100F08B
:101E6000F1F9224B9C422ED16C68A369A360A3892F
:101E70001B0732D52369002B2FD023682269F7B2C4
:101E8000981A6369F6B2834205DC2100280000F04D
:101E900037F9002827D1A3680130013BA3602368EC
:101EA0005A1C22601F706369834204D0A389DB0738
:101EB00007D50A2E05D12100280000F021F90028BD
:101EC00011D13000F8BD0A4B9C4201D1AC68CCE77F
:101ED000084B9C42C9D1EC68C7E72100280000F0FC
:101EE0000BF80028C9D001267642EAE7446D0510B8
:101EF000646D0510246D0510374B70B51D68060024
:101F00000C00002D05D0AB69002B02D1280000F099
:101F100099F9324B9C420FD16C680C23E25E93B26C
:101F200011072DD4D90611D409230120336037338A
:101F30001343A381404270BD294B9C4201D1AC6840
:101F4000EBE7284B9C42E8D1EC68E6E75B0713D54A
:101F5000616B002908D023004433994202D030003D
:101F600000F080FA002363632422A3899343A381B2
:101F700000236360236923600823A2891343A3819C
:101F80002369002B0BD1A0218022A3898900920014
:101F90000B40934203D02100300000F01FFA0C22C6
:101FA000A35E01201A0099B2024003420FD0002222
:101FB000A26062695242A261002022698242BAD1C3
:101FC0000A06B8D540221343A3810138B3E7880736
:101FD00000D46269A260EFE7581A0020446D051032
:101FE000646D0510246D0510F7B58B8905000C0094
:101FF0001A075FD44A68002A04DC0A6C002A01DC54
:102000000020FEBDE76A002FFAD0002280212E6852
:102010002A601A0049010A400B4234D0606DA3893E
:102020005B0706D56368C01A636B002B01D0236C75
:10203000C01A0200216A00232800E76AB847A18974
:10204000431C06D12B681D2B31D82C4ADA40D3070C
:102050002DD50023636023692360CB0405D5431C81
:1020600002D12B68002B00D16065616B2E600029C6
:10207000C6D023004433994202D0280000F0F2F980
:1020800000206063BDE701232800216AB847431C94
:10209000C5D12B68002BC2D01D2B01D0162B01D12E
:1020A0002E60ADE74023A2891343A381A9E7402313
:1020B0000B43FAE70F69002FA2D00A680F60D21B0A
:1020C000019200229B0700D14A69A260019B002B6C
:1020D00000DC95E73A002800019B216AA66AB04718
:1020E000002806DC40230120A28940421343A3813B
:1020F00087E7019B3F181B1A0193E7E70100402087
:102100000B6970B505000C00002B02D100252800DA
:1021100070BD002804D08369002B01D100F092F833
:10212000144B9C421BD16C680C22A35E002BEDD09B
:10213000626ED20704D49B0502D4A06D00F023F98F
:1021400028002100FFF750FF636E0500DB07DED497
:10215000A3899B05DBD4A06D00F016F9D7E7064BE9
:102160009C4201D1AC68DFE7044B9C42DCD1EC68B7
:10217000DAE7C046446D0510646D0510246D051046
:10218000002310B5040003604360836081814366CF
:102190001900C28103614361836108225C30FFF74B
:1021A000B7FD054B6362054B2462A362044BE362F7
:1021B000044B236310BDC046A12B0410C92B04108F
:1021C000012C04102D2C041010B5024900F0BAF8AF
:1021D00010BDC0460121041070B568254A1E554344
:1021E0000E002900743100F087F9041E08D0002188
:1021F0002A00016046600C30A0606832FFF788FD5D
:10220000200070BD10B5024800F0BDF810BDC046FA
:10221000F819002010B5024800F0B6F810BDC0460D
:10222000F819002010B5024800F0ADF810BDC04606
:10223000F319002010B5024800F0A6F810BDC04602
:10224000F319002013B50400FFF7ECFFA369002B7E
:1022500002D0FFF7EFFF13BDA364E3642365134BC4
:10226000134A1B68A2620193A34201D10123A36117
:10227000200000F01FF86060200000F01BF8A06054
:10228000200000F017F800220421E0606068FFF7EA
:1022900077FF01220921A068FFF772FF02221221B5
:1022A000E068FFF76DFF0123A361D2E7206D051001
:1022B000C9210410F8B50700FFF7A4FF1F4B1E68E3
:1022C000B369002B02D13000FFF7BCFF4836B46879
:1022D0007368013B04D53368002B22D03668F6E7DB
:1022E0000C22A55E002D1AD12000154B5830E3605A
:1022F000656600F047F8FFF78DFF200008222900EF
:102300002560A560656025616561A5615C30FFF7AA
:10231000FFFC6563A563A564E5642000F8BD68342F
:10232000D7E704213800FFF757FF041E3060D5D1EE
:10233000FFF770FF0C233B60EFE7C046206D0510F0
:102340000100FFFFF7B504000600002701914834A3
:102350006368A5680093009B013B009304D5246843
:10236000002CF5D13800FEBDAB89012B08D90E2217
:10237000AB5E013304D029003000019B984707432E
:102380006835E8E7704770477047000070B50E0089
:102390001D000E23C95E140096B0002907DA002341
:1023A0002B60B3891B0611D48023DB000FE06A4643
:1023B00000F068FC0028F2DBF02301991B021940B1
:1023C000054BC9184B4259412960EDE740230020D5
:1023D000236016B070BDC04600E0FFFFF7B50226CF
:1023E0008B8905000C00334206D02300473323605D
:1023F000236101236361F7BD6A4601ABFFF7C6FFA6
:1024000000990700280000F077F8002808D10C2276
:10241000A35E9A05EFD4032293431E43A681E4E70B
:102420000F4BAB628023A28920601343A381009BE2
:1024300020616361019B002B0DD028000E23E15E1B
:1024400000F032FC002806D00322A38993431A002F
:1024500001231343A381A0890743A781CBE7C0468B
:10246000C921041070B50500002910D00C1F236885
:10247000002B00DAE418280000F048FC1D4A13681D
:10248000002B05D163601460280000F047FC70BD8C
:10249000A34208D9216860188342F3D118685B68A9
:1024A00041182160EEE71A005B68002B01D0A342BF
:1024B000F9D911685018A0420BD12068091850189A
:1024C00011608342E0D118685B6841181160536065
:1024D000DAE7A04202D90C232B60D5E72168601807
:1024E000834203D118685B684118216063605460BF
:1024F000CAE7C0464C190020F8B50323CD1C9D4304
:10250000083506000C2D1FD20C25A9421ED830001C
:1025100000F0FCFB25490A681400002C1AD1244F56
:102520003B68002B04D12100300000F027FB38600D
:102530002900300000F022FB431C2BD10C2330007B
:10254000336000F0EBFB03E0002DDEDA0C23336098
:102550000020F8BD23685B1B19D40B2B03D9236023
:10256000E418256003E06368A2420ED10B603000DE
:1025700000F0D4FB200007220B30231D9043C21A29
:102580009842E6D01B1AA350E3E75360EFE722001E
:102590006468C2E70323C41C9C43A042E1D0211A13
:1025A000300000F0EBFA431CDBD1C7E74C190020E8
:1025B00050190020936810B5013B9360002B04DA9A
:1025C0009469A34207DB0A2905D01368581C1060E0
:1025D0001970080010BDFFF739FC0100F9E7F8B5E4
:1025E00006000F001400D518AC4201D1002007E00E
:1025F00021783A003000FFF7DDFF0134431CF3D1AE
:10260000F8BD0000F0B5A1B006000C001F00039259
:10261000002804D08369002B01D1FFF713FE8E4BF5
:102620009C421CD17468636EDB0705D4A3899B05AB
:1026300002D4A06DFFF7A7FEA3891B0702D523696B
:10264000002B1DD121003000FFF756FC002817D0C9
:10265000636EDB070DD50120404221B0F0BD7F4BFA
:102660009C4201D1B468DEE77D4B9C42DBD1F4682B
:10267000D9E7A3899B05EED4A06DFFF785FEEAE7B5
:10268000002308AD6B6120336B761033AB76079770
:10269000039F3B78002B01D0252B4ED1039BFB1AC7
:1026A0000593039B9F420DD0059B21003000039AA8
:1026B000FFF795FF431C00D1B5E06A69059B94467E
:1026C00063446B613B78002B00D1ACE001227B1CA2
:1026D0000393002352426A6004A9543252182B60BB
:1026E000EB60AB601370AB65039B052219785D4806
:1026F00000F000FB039B5F1C002820D12A68D30652
:1027000004D5532304A95B1820211970130704D59D
:10271000532304A95B182B211970039B1B782A2BC8
:1027200016D00021EB68039F3A78781C303A844633
:10273000092A4FD9002911D117E00137A9E7494BE0
:102740002A68C01A0123834013432B600397CBE709
:10275000079B191D1B680791002B01DB0B9304E0FD
:102760005B42EB60022313432B603B782E2B0AD194
:102770007B782A2B37D1079B02371A1D1B680792DB
:10278000002B2DDB099303223978374800F0B2FA89
:10279000002807D0344B2A68C01A402383401343D3
:1027A00001372B6039787B1C062230480393297649
:1027B00000F0A0FA002845D02D4B002B27D107228E
:1027C000079B07339343083307936B69049A9B185D
:1027D0006B615DE70A214B4367469B180939A3E704
:1027E00001235B42CEE700231A0001376B60397882
:1027F000781C30398446092903D9002BC3D00992AB
:10280000C1E70A235A4367465218093BEFE707AB73
:102810000093220029003000164B00E000BF049016
:10282000049B0133D1D1636EDB0705D4A3899B05DB
:1028300002D4A06DFFF7A8FDA3895B0600D50AE7C7
:102840000D980AE707AB0093220029003000094BDE
:1028500000F082F8E3E7C046446D0510646D051092
:10286000246D0510846D05108A6D05108E6D0510A0
:1028700000000000DF250410F7B5150001938A68F9
:102880000B690C000090934200DA130022002B60C9
:1028900043321278002A01D001332B6023689B0653
:1028A00002D52B6802332B602268062317001F40D5
:1028B0001A4227D0230043331B785A1E93412268C3
:1028C000920630D4220001990098089E4332B04706
:1028D000431C25D0062320682A68E16800250340B0
:1028E000042B03D18D1AEB43DB171D40A36822692B
:1028F000934201DD9B1AED180027BD4220D1002034
:1029000010E00137E3682A689B1ABB42D2DD22003F
:10291000012301990098089E1932B047431CF0D159
:1029200001204042FEBD3020E118433108702100F3
:102930005A1C45310978A218433202331170C1E79D
:102940002200012301990098089E1A32B047431CC7
:10295000E6D00137D1E70000F0B58BB006920A004F
:1029600043320793059004920A7E0C00109B782A4C
:1029700006D8622A08D8002A00D1C0E0582A52D0CE
:1029800026004236327022E0100063381528F7D84E
:10299000FDF7F0FB16001F00F6FFF6FFF6FFF6FF4F
:1029A0001F00F6FFF6FFF6FFF6FFA80036009A00BC
:1029B000F6FFF6FFB900F6FF3600F6FFF6FF9E00C1
:1029C00026001A684236111D1960136833700123FE
:1029D000A7E0086819680A1D05060BD50D681A607E
:1029E000002D03DA2D23049A6D421370614B0A27E0
:1029F000039332E00D681A604106F1D52DB2EFE77E
:102A00000D681968081D18602E0601D50D6803E0D1
:102A10006D06FBD50D68ADB2564B0A2703936F2A9E
:102A200017D1082715E045310A70524A03921A68F7
:102A3000216820CA1A60080650D5CB0702D520238A
:102A4000194321601027002D03D1202322689A43C7
:102A500022602300002243331A706368A360002BB6
:102A600003DB0422216891432160002D02D1049EE2
:102A7000002B0CD0049E28003900FDF70BFC039BB3
:102A8000013E5B5C33702B0005009F42F3D9082F99
:102A900009D12368DB0706D563682269934202DC0B
:102AA0003023013E3370049B9B1B2361079B210055
:102AB00000930598069B09AAFFF7DEFE431C35D15B
:102AC000012040420BB0F0BD202209680A43226079
:102AD0002200782145321170274AA7E74806ACD575
:102AE000ADB2AAE71A680D68101D4969186013682D
:102AF0002E0601D5196002E06D06FBD51980002372
:102B0000049E2361D2E71A68111D1960166800211E
:102B10003000626800F0EEF8002801D0801B606091
:102B2000636823610023049A1370BFE723693200AE
:102B300006990598079DA847431CC1D023689B07A9
:102B400015D4099BE0689842BCDA1800BAE7220065
:102B5000012306990598079E1932B047431CAFD050
:102B60000135E368099A9B1AAB42F0DCE9E70025DE
:102B7000F7E7C046956D0510A66D0510002370B5EA
:102B8000064D040008002B60FEF772F9431C03D1C8
:102B90002B68002B00D0236070BDC046EC190020CC
:102BA00070B50C000E25495F00F0C0F8002803DB6B
:102BB000636D1B18636570BDA389024A1340A3812E
:102BC000F9E7C046FFEFFFFFF8B51F008B8905004E
:102BD0000C001600DB0505D50E23C95E002202237A
:102BE00000F074F8A389054A28001340A38132003D
:102BF0000E23E15E3B0000F01FF8F8BDFFEFFFFF82
:102C000070B50C000E25495F00F060F8A389421CE6
:102C100003D1054A1340A38170BD802252011343A2
:102C2000A3816065F8E7C046FFEFFFFF10B50E23F4
:102C3000C95E00F015F810BD70B504000800110061
:102C40001A000023054D2B60FEF73AF9431C03D10F
:102C50002B68002B00D0236070BDC046EC1900200B
:102C6000002370B5064D040008002B60FEF71CF928
:102C7000431C03D12B68002B00D0236070BDC046DD
:102C8000EC190020002370B5064D04000800110067
:102C90002B60FEF70CF9431C03D12B68002B00D0EE
:102CA000236070BDEC190020002370B5064D0400B0
:102CB00008002B60FEF700F9431C03D12B68002BA2
:102CC00000D0236070BDC046EC19002070B5040030
:102CD000080011001A000023054D2B60FEF7EEF8E6
:102CE000431C03D12B68002B00D0236070BDC0466D
:102CF000EC190020C9B28218904201D1002070471F
:102D000003788B42FBD00130F6E7000010B5024893
:102D1000FFF739FB10BDC046F419002010B502487A
:102D2000FFF732FB10BDC046F419002070B5040057
:102D3000080011001A000023054D2B60FEF7D3F8A0
:102D4000431C03D12B68002B00D0236070BDC0460C
:102D5000EC190020F0B5054600200F46079E059CA3
:102D6000174309D0202905D30127BF03BA4201D850
:102D7000914201D94220F0BD194621430AD09C421C
:102D8000F8D309498C4203D00849A41F8C42F1D2E0
:102D9000062BEFD3002D03D0022D01D0032DE9D156
:102DA000032EE7D8F0BD0000FFFF00007B0C000001
:102DB0007CB5069D079C002805D0860705D14607EF
:102DC00003D4060701D442207CBD002903D0012989
:102DD00001D00229F7D10095019400F0E5FA7CBDFD
:102DE000FFB587B0109D159E169C01930295009427
:102DF00007A807C81F463346FFF7ACFF00280ED1CF
:102E00001398149903AA069443C211981299019039
:102E10000095029107A807C83B4600F055FC0BB08F
:102E2000F0BD70B51C4613460D46012C03D0022C94
:102E300003D0422070BD022200E010221946FDF7A7
:102E4000CCFA2C70002070BDF0B587B01C460B4644
:102E5000054600A9023101A80C9F0D9EFFF7E1FF76
:102E600000280ED16846058084828775C6750E9944
:102E700001760F994176109981766946119801F093
:102E800083FC07B0F0BD70B586B014461D460A46F7
:102E900003466946881C0A9EFFF7C3FF002804D139
:102EA000012C04D0022C02D0422006B070BD234673
:102EB0002A466946304601F0B1FEF6E710B502F049
:102EC00035F910BDF0B585B084460AA8F0C868464B
:102ED0008581C68103A8019002970094604602F0A4
:102EE0000FFC05B0F0BD10B503F058F910BD10B5DA
:102EF00003F076F910BD000010B503F035FD1D4C50
:102F00004121206849014118097F00290DD1A030D5
:102F10000079C00705D100F0B7FB01F09FFF0DF06D
:102F200019F803F08FFA10F0A1F800F001F9206809
:102F3000014640310A78C9798A4319D13E21095C9A
:102F4000002915D10C490A88120711D50922D20689
:102F50001269497A836AC90059181123DB01C01824
:102F6000806A801A00020012814201DA0CF00CF82B
:102F700010BD0000481A0020C000002010B5837F5B
:102F80000122002492024168082B03D94224914275
:102F900002D310E0914201D242240CE001463422D7
:102FA0000648FDF71AFA00F083F8002801DA4824F1
:102FB00001E000F02DF9204610BD0000DC020020E9
:102FC0003EB5174D15482968827F0846A0310A731F
:102FD00000246030047644768476E122C276802232
:102FE000027702224277302008704C7002AA01A9B1
:102FF0006846FDF7E1F968460078A22201016846BB
:10300000007A891C000201436846007900030143ED
:1030100028681152A03004713EBD0000DC0200207F
:10302000481A002070B503F085FC0BF0D9F90AF0BE
:1030300003F810F035FE03F061FE1A4C1A492068BF
:103040001A4D4018811013202A68C0011018C1625F
:10305000616889080163A168890841630EF058FD21
:1030600029681F208001228B08188280628B0F2321
:10307000C280DB01A28BCB18DA87628C02802246E9
:103080002032127882703D22520100208918087384
:1030900000F088FA03F0E6F903F06CF910F06CF830
:1030A00070BD0000DC0200200000FCEF481A002088
:1030B00070B50025ED43FEF76EFA01282ED00023EF
:1030C00018490322888BFF24401E10438A7F5934FD
:1030D00062438218088B282460431218488B3024DE
:1030E000604312180846203040782C2460431018A2
:1030F0000D4A181884184869A0420DD10B48844223
:103100000AD90D69FEF747FAC1B2284608F02AFC31
:1031100008F064FD401B251A284670BDFF23B53317
:10312000CEE70000DC02002089190000B809000089
:10313000F8B52C4F3C68206E5C34401C002814D03D
:10314000002529480023C07B00283ED00926F6062A
:103150002648002D1CD000210A460B464169521C0E
:10316000994204D1002902D004E00125E9E7204B6F
:103170009A42F2D32160006960603069A168000260
:10318000090E000A09060143A16000F033F81DE0B2
:103190003169A2680902090A150E08D0018BC90716
:1031A00012D04169216000696060E37210E0881A02
:1031B00000027D2300121B03984205DD100E00065D
:1031C0000843A06000F016F8F8BD6360002DFBD046
:1031D00003CC0BF0FFFDFA200BF0ECFD39688862A0
:1031E000F8BD0000481A0020FC0200200000104832
:1031F0008813000004490020086104480121006888
:103200006030C1717047000000001048481A00206B
:10321000F8B5062632484025056032480027078069
:10322000A9050920C00641602F4A9160016801602C
:103230002E48032104694269601E08433946401C38
:10324000FDF7CFF8FEF7A7F9C1B2204608F08AFBD8
:1032500008F0C4FC08F0CEFCFEF769F924491720F9
:103260008881244C2068421901465770FA208862F0
:1032700028201070FEF741F9012805D1206810229E
:103280004030017811430170FEF79BF9012805D108
:103290002068802240300178114301702068014687
:1032A00040300278324302700020C0430866FDF7C8
:1032B000F2FBFFF785FEFFF7B5FE20680121203005
:1032C000017707214177012002F068FF06F0FCF941
:1032D000FFF72EFF02488038056002210160F8BD2B
:1032E00080E100E0C000002040000048DC02002037
:1032F00000001048481A002038B5184A14682246C1
:10330000BA32AE34A378DD0701D001290AD05B07B9
:103310000CD501290AD0217949070BD5E17A00297A
:1033200005D007E0E07880210843E07038BD012136
:10333000E172508020794106090FF7D078210840CA
:1033400069460870002048706A460221422000F059
:1033500051FB207987210840207138BD481A002090
:1033600038B51048002104680846AE3407F0A0FBC9
:10337000694648702079C10704D001216A4611705E
:1033800088432071C0B2810705D502216A461170B9
:10339000FD210840207102216A46084600F02AFB00
:1033A00038BD0000481A0020FFB50C4678A103C9BB
:1033B00095B001910090002108A801730321C90272
:1033C00068464186012108A8734E01743568174686
:1033D000AE3512F0F1FC002808D170493068401871
:1033E0000AF06EF9A878002802D0462019B0F0BD86
:1033F0000BA81599FEF793F80028F7D1072010A91C
:103400000871012C05D0022C0AD0002C0ED04220CD
:10341000ECE708A8017B1020014308A8017305E030
:1034200011A90BA8FEF761F80028DFD110A80279D6
:1034300001230CA9284601F0F1FB00287ED10222CD
:1034400029461898FCF7C9FF29886846818115210B
:10345000490201820784012686734E2108A88170E3
:103460000024C470067107214171867103A902A866
:1034700001F08AF9002861D1022202A91E98FCF706
:10348000ACFF082F02D26846478502E00820694653
:10349000488569460C850B4628880AAA098902F0E6
:1034A000FBF800286DD13E49684601820227078457
:1034B00008A8847103A902A801F066F9002860D168
:1034C000022202A91F98FCF788FF6846047069462B
:1034D00044704F850B4628880AAA098902F0DCF857
:1034E00000284ED108A8007BC00723D02C4968468D
:1034F000C91C01820821018408A88770047103A9EE
:1035000002A801F041F900283BD1FF216846C171B2
:103510008171C1708170417001704471047169469C
:10352000082048850B4628880AAA098902F0B4F8C1
:10353000002826D108A8007B800600E021E022D5E3
:103540002988684681811649A531018206848673DF
:1035500008A88770C470047107214171847103A9A0
:1035600002A801F011F900280BD169460E700C85F4
:103570004E850B4628880AAA098902F08DF8002892
:1035800001D0472032E708A8007BA87000202DE773
:10359000626C75656E726721481A0020330700005F
:1035A000012A0000034800210068AE30C17081701C
:1035B00070470000481A002070B50D4B1C68AE34EF
:1035C0002379DD0612D45B0710D533280ED1E07ABB
:1035D00002280BD10420107000205070C9B20220C4
:1035E00000F008FA2079FB210840207170BD00002E
:1035F000481A002038B50246174801240068AE304A
:10360000022A1FD0052A03D0072A07D00B2A20D16F
:10361000084609794088FFF76FFE1AE00079002418
:10362000020600D50124820703D1C20601D4800618
:103630000FD5084600216A461170694600F0C2F8AD
:10364000044606E08178490703D50179FB22114041
:103650000171204638BD0000481A002010B5094805
:103660000468AE34E07880070BD500200AF04EFDE8
:10367000022000F097F9E07801210843FD2108407D
:10368000E07010BD481A00201FB50E480468AE3423
:10369000E078010612D5A178C9070CD0800708D5BB
:1036A000042069460873684603F038FA022000F0E7
:1036B00079F90020E0704006400EE070FDF733FF1E
:1036C0001FBD0000481A0020F0B58DB00C4616A9A9
:1036D000E0C90021089109910A910B911599049173
:1036E00005A9E0C112A962C90093019113460146E0
:1036F000039602952246012000F09AF80DB0F0BD25
:103700000949B22209681423525CBA311A4208D01E
:10371000498800050905090D000D814201D10120EC
:103720007047002070470000481A002002780907FF
:10373000090F0A43027000207047000030B50E48A0
:1037400085B005682C46AE352879BA34400711D5C6
:10375000E87A01280ED115214902684641800121ED
:10376000017060886B46054A00F0A4FA002801D178
:103770000220E87205B030BD481A0020FFFF0000AB
:103780007CB50446E1200D46800005F059FD0BA1F3
:1037900003C900900191684602F0BCFF01200BF0C4
:1037A000EFFB002801D047207CBD20782021084372
:1037B00020700920287000207CBD00001F0200003E
:1037C0000000000030B5194B047A1B68C268AE33A4
:1037D0001B799D06AD0F04D10078042801D000208C
:1037E0000EE0012030BD155C002D0BD0401C80B2D6
:1037F000155C012D08D01518203DED7F281880B2EA
:10380000A042F0D3087830BD401CDD07012480B20F
:10381000002D02D0105CC00703E09B07F2D5105CBE
:1038200080070028EED00C70ECE70000481A00205A
:10383000FFB595B00E46054620210CA8FDF772FB9A
:1038400000200490564800270468681EAE340428FF
:1038500002D8A078C0070BD0062D02D0002D0AD0C8
:1038600002E0A078800703D5E0784006800E0AD0F9
:10387000462019B0F0BDA0788007F9D0E078400666
:10388000800EF5D00FE0002D0DD0012D20D0022D9F
:1038900028D0062D33D0032D33D0042D37D0002E61
:1038A0003BD04220E5E700200AF030FC0028E0D1C0
:1038B000E078800708D5042069460873684603F05D
:1038C0002DF9022000F06EF80120E0700020D0E712
:1038D000012EE6D0042EE4D01F980028E1D106275F
:1038E000042008E0012EDCD0042EDAD01F98002836
:1038F000D7D105270220E0700120049010E040207D
:103900000DE0022E01D0032ECBD1082007E0012EBE
:1039100001D0042EC5D1102001E004272020E07042
:1039200000230BAA19461E9809F028FD030002D0B7
:1039300000F0E0F832E01022002107A8FCF751FD6A
:1039400007A86C46279B269A1F990FC42B46304622
:10395000189A179900F088F80300E9D108A8017BAC
:10396000C170259803AC049B289A29990FC422ABF7
:1039700007CB02920091019039460CA8209B219A16
:1039800000F0C2F80300D3D107A80AF0BDFE03007F
:10399000CED101200AF0BAFB0300C9D1184668E76E
:1039A000481A002010B50446C1061148006803D526
:1039B0001522BF210C4006E0392149014118897BBD
:1039C000C90710D012222107890E08180121C90247
:1039D0004018C06C002321460FF018FC010004D0F1
:1039E00020460FF0FFFB002010BD072010BD000097
:1039F000481A0020F8B5891ECDB20646A81C03213E
:103A00000843401C8308174817460068F10603D591
:103A10001C22BF210E4008E0392149014118897B51
:103A2000090601D40020F8BD19223107890E0818B3
:103A30000121C9024018C06C31460FF0E7FB0400B9
:103A40000ED03978217179786171A5712A46B91C37
:103A5000E01DFCF7C2FC214630460FF0C3FBE1E756
:103A60000720F8BD481A0020F8B5204B204D1B68F0
:103A700001265B19069CB6030093002814D0042885
:103A800012D0022813D0032811D006252B46012876
:103A900010D00F4617430DD0914203D8202901D3EF
:103AA000B2420AD94220F8BD30256023EFE7A025B5
:103AB000F023ECE72580638001E0218062802071A3
:103AC0000798A071089820720998002805D001462F
:103AD000204606220930FCF780FC07206071009820
:103AE0002030807B60710020F8BD0000481A002063
:103AF00058080000034881220068A030417C114032
:103B000041747047481A0020F8B505463E481E46E5
:103B10000068079F0024AE301346002905D002221A
:103B20002A7001226A70A9700324002E10D08078B8
:103B30008006800F0CD13019401C1F2854D82E55F8
:103B4000641C281932461946FCF747FCA019C4B278
:103B5000002F0DD03819401C1F2845D82F55641C44
:103B6000E4B228193A460699FCF737FCE019C4B2CA
:103B70006846008C00281BD06846808C002817D02F
:103B8000601D1F2830D805202855641CE0B2122182
:103B90002954401CC4B228190646022208A9FCF781
:103BA0001CFCB01C022209A9FCF717FC241DE4B27E
:103BB0000C98002812D0E01C1F2815D80220285588
:103BC000641CE0B20A212954401CC4B268460BF0C0
:103BD000B7F8684600782855641CE4B20B980028B2
:103BE0000CD000191F2801D94220F8BD28190B9AC2
:103BF0000A99FCF7F2FB0B982018C4B2214628461C
:103C00000AF0DEFCF8BD0000481A002000B500F004
:103C100009F8002805D0852201699201114200D0DF
:103C2000002000BD10B50D4900050B6809210902EF
:103C30005918CA6E0021000DA0331B7B0AE04C010D
:103C4000145B2405240D844202D14801801810BD64
:103C5000491CC9B28B42F2D8002010BD481A00207E
:103C6000FEB58C68CD88267B012E01D00020FEBDDC
:103C70004126052D01D01E7019E0247C0A2C00D0AD
:103C80001E70002A0DD08968052268460C31FCF7A9
:103C9000A4FB6D1E00AAA9B232200132FFF78CFCF2
:103CA00005E000880A460146022000F0FDF94120A7
:103CB000FEBD0000FFB589B0074646251E781022DC
:103CC000991C05A8FDF720F9012E04D0022E02D080
:103CD00042200DB0F0BD3846FFF798FF040024D015
:103CE00020223946002009F085F907001CD005ADD7
:103CF00004960FCD6D460FC5394620460B9B0A9A98
:103D000009F001FB050004D00021384609F0CEF986
:103D10000BE0012120694903084320610448A061A8
:103D2000384600F051FC00E064252846D1E7000049
:103D3000353D041010B5502100F001F810BDF0B56C
:103D40008BB00D4604460020694608710490E66970
:103D5000002E16D0A806800F03D02088FFF7D0FCD5
:103D6000049001AB31462046049AFFF779FF4128C1
:103D700065D0E80708D021883246022000F018F903
:103D80005DE041200BB0F0BD680705D521883246C3
:103D9000022000F0D3F852E0A80739D5F0886188F6
:103DA000814205D921883246022000F08DF846E094
:103DB0002069410604D5012189020843206180E081
:103DC00021882022002009F015F905001ED0218845
:103DD0003246022000F078F8A068801C00F0D0F98C
:103DE0006188401E401886B2A06800F0C9F90246FA
:103DF00033462946204609F062FA284600F0E4FBE3
:103E0000A0683146801C00F0B7F954E04520B9E7BE
:103E1000E80614D5F088412702280ED9B168801E23
:103E20004D7B80B2854201D9012016E0002D04D0DF
:103E30002946FCF72FFA00290FD0684607710120A8
:103E40002169400381432161049800282DD001AAF3
:103E500001213120FFF7B0FB2DE002900220002766
:103E600003901EE0049800280DD0039805AB001DB8
:103E700081B22A46304609F07DF805AA294633204A
:103E8000FFF79AFB07E003980096C2B22B46218801
:103E9000022000F0C7F80398401980B27F1CBFB21F
:103EA000039002988742DDD3C9E7684602792188EA
:103EB000022000F035F90121E06909F0F7F800204F
:103EC000E06100205EE70000F7B506469079032127
:103ED000401EC5B2E81C0843401C8308164817461C
:103EE0000068F10603D52C22BF210E4008E03921DD
:103EF00049014118097C090601D40020FEBD292290
:103F00003107890E08180121C9024018C06C3146DA
:103F10000FF07CF904000DD00198A080A5712A460D
:103F200005213846E31D09F025F8214630460FF0FB
:103F300059F9E2E70720FEBD481A0020F7B506460A
:103F400090790321401EC5B2E81C0843401C830839
:103F5000164817460068F10603D52D22BF210E40F2
:103F600006E0392149014118497CC90719D02A22A4
:103F70003107890E08180121C9024018C06C31466A
:103F80000FF044F904000ED00198A080A5712A46D4
:103F900005213846E31D08F0EDFF214630460FF0BD
:103FA00021F90020FEBD0720FEBD0000481A0020B8
:103FB000F7B5064690790321401EC5B2E81C0843B8
:103FC000401C8308164817460068F10603D52B22CB
:103FD000BF210E4008E0392149014118097C4906FA
:103FE00001D40020FEBD28223107890E08180121C6
:103FF000C9024018C06C31460FF008F904000DD01A
:104000000198A080A5712A4605213846E31D08F0D5
:10401000B1FF214630460FF0E5F8E2E70720FEBD8C
:10402000481A0020FFB59B1E0646DDB2681D03211D
:104030000843401C83081B4881B000681746F106FE
:1040400003D53622BF210E4009E03921490141182C
:10405000897C890702D4002005B0F0BD33223107E6
:10406000890E08180121C9024018C06C31460FF0B2
:10407000CDF8040014D00298A0800A9823468068E6
:104080002A460830C0190079E0802572B91D09332D
:104090000A9808F06FFF214630460FF0A3F8DAE7E0
:1040A0000720D9E7481A0020F8B5044690680F4663
:1040B00001461546467B0E3102226846FCF78DF913
:1040C000A8680223057C1548E10603D53522BF21E7
:1040D0000C4009E03922016852018918497C09061F
:1040E00001D40020F8BD322221070068890E08188B
:1040F0000121C9024018C06C21460FF087F8010069
:1041000009D08F808E716A4612880A818D7220468E
:104110000FF068F8E5E70720F8BD0000481A002016
:1041200070B50E4601230446C106124815460068C4
:1041300003D53422BF210C4006E039214901411842
:10414000897CC90711D031222107890E0818012165
:10415000C9024018C06C21460FF058F8010006D083
:104160008E808D7120460FF03DF8002070BD072035
:1041700070BD0000481A00200170090A41707047A4
:1041800001784078000208437047F8B5069C1F4646
:1041900015460646002C13D0A06802220D30FCF70D
:1041A0001CF9E81E82B23B460721204608F0D2FFE8
:1041B000E580A068012E05D01D2101730020F8BD07
:1041C0004720F8BD1B21F8E7F1B5FFB001248BB003
:1041D000600205900027CC4807970168CB48C94D7D
:1041E000081803908A980AAA0005000D05A90BF08B
:1041F00067FB0690002872D104260AA80599421888
:10420000203AD27F0B2A23D00026002004900AA84F
:104210008119022201A80291FCF7DFF86846818823
:1042200009AB08AA039801F033FC012817D0022833
:104230007ED068468088854200D30546844200D9F6
:104240002046044602988078012872D013363CE15B
:10425000491E761E36040591360CCFD1D5E7089855
:104260000090002F66D10099022228310298FCF7B5
:10427000BCF800281ED100982030017B029880787D
:10428000814217D1012808D10098029902220830F2
:10429000C91CFCF7AAF8002815D0029880780228DB
:1042A00008D10098029910220830C91CFCF79DF82B
:1042B000002808D00098008DA84200D80546A042EA
:1042C00000D22046044602990AA88978012907D01D
:1042D00013360599B6B28E4204D3012707E006E1F2
:1042E000761DF6E78119022201A8FCF776F80399FA
:1042F000009808318E462FE084466946026A8B8812
:1043000020300DE0918B994203D3012F7ED1994249
:104310007CD9A94200D80D46A14200D30C461268B0
:104320008242EFD10498002804D16046006802E080
:1043300015E0BFE08AE070450ED0018D994203D3AD
:10434000012F09D1994207D98D4200D30D468C42E5
:1043500000D80C46012F59D17045CDD1BAE008984C
:104360000090002F72D1009902221C310298FCF7B4
:104370003CF800281ED100982030C178029880783F
:10438000814217D1012808D10098029902220830F1
:10439000C91CFCF72AF800281AD002988078022855
:1043A00008D10098029910220830C91CFCF71DF8AA
:1043B00000280DD00098808BA84200D80546A04266
:1043C00000D22046044602988078012826D003E0D7
:1043D00002988078012805D013360798B6B20128D4
:1043E0001ED021E000984A490089884216D18A9857
:1043F000FFF718FC0146009800F08CF80099098C32
:104400004843009989694018022200E038E0029987
:10441000491DFBF7E2FF01200790D4E7761DDCE79A
:10442000B61C0020B6B207900598864201D301273A
:1044300005E00AA88119022201A8FBF7CEFF039A22
:104440000099083209980968944630E01AE08646D7
:104450006A46938820300DE08A8B9A4203D3012F5D
:104460000ED19A420CD9AA4200D81546A24200D3D6
:10447000144609688142EFD1049800282AD102E04D
:104480000120049026E07046006860450FD0028D40
:10449000016A9A4203D3012F09D19A4207D9954262
:1044A00000D31546944200D81446012FE8D1604548
:1044B000CDD10FE00298C078022805D1029800798A
:1044C000292801D1B61CB6B2761D0598B6B286422F
:1044D00000D301270598811B042902D3864200D20C
:1044E00093E604980028FBD1A54203D906987FB033
:1044F0000CB0F0BD224629468A9801F00FFB0690C9
:10450000F5E70000FFFF0000481A002064070000E4
:104510000229000030B5024623239B5C0020012BBA
:104520001AD112890D4B9A4216D10D4A09231268ED
:104530001B02D318A032DB6E127B0AE045010C8807
:104540005D5B24052D05240D2D0DAC4204D0401CCF
:10455000C0B28242F2D8002030BD00000229000023
:10456000481A0020064909220968120289188008A1
:10457000C96E400108180188002900D10020704749
:10458000481A002010B50446022000F033F80D4808
:1045900000210268092000021018A032C36E107BAF
:1045A00005E04A019A5A002A04D0491CC9B288423F
:1045B000F7D810BD48011C52C018026904210A43F3
:1045C000026110BD481A002010B5044601460420BF
:1045D00002F0CAFC002808D00448054900684018C9
:1045E00021463C300FF078FC432010BD481A0020D3
:1045F0006407000004490A683D21490151180A7BFB
:1046000002430A7370470000481A002000B51138B1
:10461000C0B2FFF7A7FF002804D0012201695205AC
:104620001143016100BD0000F3B597B00D884888C3
:104630000590081D1DC80DAE1DC68C8ACE8A087E49
:104640001390C86920310190087800904878049050
:1046500088780390C87802900F7900F04BFD00280D
:1046600017D10120400284425FD8B4425DD8002FA8
:1046700001D1B44259D114A9284601F037FA0028D3
:1046800006D115AA1499059801F020FA002802D045
:10469000602019B0F0BD149D11A92846183009F00A
:1046A00063F810A88088002810D0284612A920306E
:1046B00009F05AF810A8838800892A8D1818696AA9
:1046C00010188A8B904203D16120E2E74820E0E78E
:1046D00015982C4B02899A4227D12322125C012A79
:1046E00023D1006800681690139801281FD16846EE
:1046F000808E29221202801A030001F008FD0604B0
:10470000180404070A18022C0FD110E0072C0CD152
:104710000DE0042C09D3E00707D1012F07D1A642F1
:1047200003D3042E01D3F00701D04220B1E7029851
:104730000B90039B049A0A9309920098019A0C9794
:1047400008900696059407920DA81DC8019002A82E
:104750001CC013980B4600902A461699179800F033
:10476000B1F9002895D168460649808EFF3188420C
:1047700005D01798018800200A4601F0CFF90020E3
:1047800087E7000003280000F3B5A5B008881A9059
:1047900088780C4611901022091D13A8FCF7B4FB71
:1047A000A08A1090A17D68460172E07D0F90207E66
:1047B0002090677EA07E1F90002006460146129042
:1047C00020A801810F20BB4C2390BB4920684018D2
:1047D000199000F08FFC00280BD10121109849029C
:1047E00088425FD821A91A9801F080F9002802D0E8
:1047F000602027B0F0BD2198179008F059FF1A9952
:1048000088420CD102A801901698009013AD0ECDED
:10481000119808F015FF002801D06320E9E76846E9
:10482000017A8806800F05D0012012902068A03000
:10483000007B4600C80703D01298401CB61C12909B
:10484000080603D51298401CB61C129017980DA9A3
:1048500018301D9008F088FF6846129C808EA41CBA
:10486000A04237D317980EA92030019008F07CFFA2
:104870006846018F00290DD01798179A6B46406A39
:104880009B8E128D5918808B5118081AA04201D2A4
:104890006120AEE71798846911982568012803D034
:1048A000022803D04220A4E7052000E01320E08383
:1048B0002A4639460F9808F00DFF422899D0199FD3
:1048C000E28B4037788B398B411A10981018801979
:1048D000814201DA48208CE70EA9019808F044FFD4
:1048E0006846008F0028179802D0406A808B00E04D
:1048F000008D2599401C0880259801210088A083FF
:10490000259802220088401CA8836C4820812046FC
:1049100020301790C1700021817081711998398BF6
:10492000406D40186946A061097A0170A069294666
:104930001C31401CFBF751FD11980128A0697DD066
:10494000102213A9C01CFBF748FD2846102213A90A
:104950000830FBF742FD388B133038832E46203663
:104960001198F0701098E8831F98B0701098208408
:10497000109828841998398B406D4018A86100213F
:10498000109AFBF72EFD398B109808183883179969
:104990000120087117990020487130716846007A2B
:1049A000810701D50121317101070227002902DAAF
:1049B000317939433171410703D5317904221143EB
:1049C0003171400603D530790821084330710F98C2
:1049D00070712098B07121461D9808F0EEFE2146B6
:1049E000019808F0CBFE29461D9808F0E6FE2946FE
:1049F000019808F0C3FE1298002841D068461A9921
:104A00008181A18BC18107844784012408A8047196
:104A100022A80A9008A88473239941730F9938201B
:104A2000014008A801730721C17300250574684679
:104A3000007AC00708D02248694600E02BE00882CF
:104A400003A924A8FFF7F0FD6846007A8006800FCE
:104A500007D01B486946401E088203A924A8FFF717
:104A6000E3FD6846007A00060AD529210902684656
:104A7000018208A84473057303A924A8FFF7D4FD95
:104A8000259801881298401C081882B2002001F075
:104A900045F80020ADE6022213A9C01CFBF79DFCDF
:104AA0002846022213A90830FBF797FC388B401DDB
:104AB00053E70000481A00206407000003280000A4
:104AC00003290000FFB55248524A006887B0821897
:104AD000069210AA109B0126169F9288012B04D1E2
:104AE0004D4B9A4201D1A030067B069D344640359D
:104AF000688B2B8B7C43C31A099820300390A34208
:104B000022DA48200BB0F0BD2320405C012819D1E7
:104B100008896C46208098420CD03F4C641EA0420D
:104B200008D0641CA04205D0641CA04202D0A41C82
:104B3000A04207D1384CFF3CA04201D0904201D1A5
:104B40006220DFE7096801E029231B020398814204
:104B5000DAD109981B9984691898224608F0BAFDA1
:104B60004228CFD01C98012804D11598874201D241
:104B70004220C7E71598E083204620301C99059015
:104B8000817027840A98808B401CA083109801288C
:104B900014D02046102211A90830FBF71EFC0599FD
:104BA0001098C8700698298B406D4018A061298B19
:104BB000384670430818288300250FE011A80FC855
:104BC00008340FC4183CEAE72846A169784308185E
:104BD000159A1799FBF701FC6D1CEDB2B542F3D3A2
:104BE00005991898487105991998087105991A98A6
:104BF000887109982146183008F0DFFD2146039896
:104C000008F0BCFD0798A18B018000207AE7000026
:104C1000481A00206407000002290000FFB58FB089
:104C200014460E78102205A8891CFCF76DF94F4830
:104C30004F490068451800F05DFA00281ED1002C8D
:104C400057D0012E09D16846808A4A49884204D14A
:104C50002846A968083081424BD12846103029697E
:104C60000390814209D00AA9284608F07DFD6846D4
:104C7000018D601E0D90814202D2482013B0F0BD1C
:104C8000284608300CA9049008F06EFD6846008E96
:104C9000002814D0EF680AA93846183008F064FDDF
:104CA000384620300CA908F05FFD6846398D008D2C
:104CB00009186846008E401C081887B200E00127DA
:104CC00001200004C01BA04201D26120D6E72C695C
:104CD000286801901298012802D0022803D008E029
:104CE0000520C00200E024486085012E03D0022E7A
:104CF00005D04220C2E720460830022202E02046CA
:104D00000830102205A9FBF768FB20463146203009
:104D1000064601730F98214607802785039808F0FF
:104D20004CFD2146049808F029FD27461837E76115
:104D30006662A76126620D9884B20BE0284601994D
:104D400008F03BFD3846019908F018FD2868641EFC
:104D5000A4B20190002CF1D10F9801880D98081889
:104D600082B2002000F0DAFE002087E7481A002017
:104D700064070000011800000128000002460848EE
:104D80000849006841188868083103E0038D9342A0
:104D900002D200688842F9D1884200D100207047D1
:104DA000481A002064070000034610B50E480F495A
:104DB000006841188868083103E0148D9C4203D8CC
:104DC000104602688A42F8D18A420CD1018D99427C
:104DD00009D20146026A20318A4203D0416A898B96
:104DE000994200D2002010BD481A0020640700003C
:104DF000024610B50B481205016809200002081888
:104E0000C36E0020120DA031097B07E044011C5B3A
:104E10002405240D944203D0401CC0B28142F5D831
:104E200010BD0000481A0020F7B505461746019846
:104E30000FF022F82E050446360D0CE0A0882568F8
:104E4000B04207D1214601980FF063F83946204659
:104E500008F02CF92C46002CF0D1FEBDF0B58BB03B
:104E600000206349029063480A68141872B610461D
:104E70004030C57902231D43C57162B625464035D1
:104E8000287AC0077DD00920000210180026C76EBE
:104E900049E071017A5A002A43D0C919069109697B
:104EA0004A021ED48A0226D50221049106990123C2
:104EB00009880905090D0391392149014118097C27
:104EC00089070ED5D902083040182322C06C022170
:104ED0000EF09CF9010004D0039A8A8004980EF029
:104EE00081F9069800880090069800F085F80098EF
:104EF0000CF04CFF15E0480713D506980088000514
:104F0000000D0CF0D5FE002805D10698008800059C
:104F1000000DFFF759F906990420096981430698A5
:104F20000161761CF6B23248AC210068095CB142DE
:104F3000AFD800F01BFF2046243006460EF0E2FFFB
:104F4000012802D0012000F015FE204618300EF096
:104F5000D9FF012802D0002000F00CFE3C3420468E
:104F60000EF0D0FF01280FD002A920460EF0F3FF6B
:104F70000420029901F0F8FF0028F0D020460299A1
:104F800000E032E00EF095FF287A00062DD530467D
:104F90000EF0B8FF012828D1002008F007F8A98BEF
:104FA00023314909491CC9B2FBF774F900281CD008
:104FB0000F4D044628680123D902083040184226C4
:104FC0003822C06C31460EF021F901000DD00022CC
:104FD0008A80CC8030460EF005F93D212A684901CF
:104FE00051180A7B802082430A730BB0F0BD000089
:104FF000481A002064070000F0B504463B483C49CD
:10500000006885B04518218A890419D502210491C8
:10501000392149014118897C412627880123C90784
:105020000ED0D902083040183122C06C02210EF097
:10503000EDF8010004D08F808E7104980EF0D2F844
:105040002946208801221831FFF7EEFE29462088E4
:1050500001223031FFF7E8FE294620880122243161
:10506000FFF7E2FE2946208800223C31FFF7DCFEF4
:1050700020880005000DFFF7BBFE85002946113191
:105080006846017301F04AFD2946123168460173F2
:1050900001F044FD294613316846017301F03EFDDD
:1050A00068461435057301F039FD208800F03CFA9C
:1050B000208801050D48090D02681320C001101851
:1050C000028A914201D100210182E069002802D0C8
:1050D000012107F0EBFF202200212046A568FBF705
:1050E00080F91720A560608005B0F0BD481A002047
:1050F0006407000010B50B480B49006844184034A1
:10510000207AC00709D0002007F050FF217A8907D4
:1051100001D5002803D0002010BD472010BD642019
:1051200010BD0000481A002064070000F0B55FA021
:1051300099B000685E4915905E4A08688418092293
:1051400012028218D26E2546403514922A7AD2076E
:1051500002D0622019B0F0BDAA8B01235B029A42F3
:1051600001D9AB8303E0172A01D21722AA83149A2C
:10517000A0301392067B0DE0761EF6B213987101F3
:105180000F18B8680F90384620220021FBF729F944
:105190000F98B860002EEFD120460830E0606460C0
:1051A000A06024600830139060612061FF2200211C
:1051B00008300EF076FE2046FF22002124300EF04B
:1051C00070FE2046AA7F002130300EF06AFE204695
:1051D000FF2200213C300EF064FE00222A721046AD
:1051E0001721334B05E0149E4701BE19401C718006
:1051F000C0B21E68A036367B8642F4D800202883D1
:105200002F8C688C0026149008E02820E16C7043F5
:105210000918204608F0B2FA761CB6B2BE42F4D3A2
:10522000002608E03020216D70430918139808F01B
:10523000A5FA761CB6B214988642F3D30120FFF784
:10524000D9F90124684604701B4941802346042291
:1052500069460CA8FFF7E2FC002822D16846018EBF
:10526000818216490183042606858475202108A8B9
:1052700081720024C472047307214173847305A9E9
:105280000DA8FFF781FA00280BD1684604874687EE
:10529000818E15AB0EAA008E00F0FEF9002800D119
:1052A00058E700202872472054E700000000FFFF65
:1052B000481A00206407000001180000052A0000B9
:1052C000F8B5044683480E460068834947184820CD
:1052D000C05DC0076FD0B088FEF7A4FC0546012C66
:1052E00002D0002C68D0F3E0002D04D028694107DB
:1052F00003D54520F8BD0121C7E0B268F188147BD1
:105300000029F0D062060AD568888842F3D3D22CEF
:1053100001D0522CEFD138463146183048E0A10672
:10532000890E1E2949D81E2C20D101071ED508211F
:10533000884328612988012008F008FA01213046B5
:1053400007F0B4FE634801230068D9020830401812
:1053500042242D883922C06C21460DF057FF0100F0
:1053600003D08D8020460DF03DFFB1E0E1070BD06A
:105370001D2C1AD01B2C18D0410533D401218902D1
:105380000843EE612861A3E0C00606D52B46022241
:105390000321422000F07EFEADE72988002008F0BE
:1053A000C3F9296910200143296138463146243068
:1053B0000EF092FD8CE015E016E0298820220020F6
:1053C00007F018FE05000DD00121304607F06EFEF3
:1053D0002B460022214606200FF06EF92846FFF7E3
:1053E000F3F875E04120F8BDB068047B1D2C3CD07B
:1053F0001B2C43D00021304607F058FE002D67D00B
:10540000032C46D0052C44D0072C42D0092C40D088
:105410000B2C3ED00D2C3CD00F2C3AD0112C38D078
:10542000132C36D0172C34D0192C32D0012C30D07C
:10543000022C35D0042C33D0062C31D0082C2FD0A0
:105440000A2C2DD00C2C2BD00E2C29D0102C27D090
:10545000122C25D0162C23D0182C21D0522C1FD042
:10546000D22C1DD01E2C2FD032E0002D03D0298845
:10547000012008F059F93146022001E031460120AF
:1054800000F052FD002823D00021304607F00EFE28
:105490001EE029691020814329612988002015E038
:1054A0002869402188432861010511D5FF21013178
:1054B000084328612988022008F036F9012029696B
:1054C000C0028143296103E02988032008F03EF9E6
:1054D0000020F8BD481A00206407000010B5104AEB
:1054E000104B1268D2184032127AD20706D0022826
:1054F0000AD0052804D00B2810D101E0412010BDAE
:105500004888FFF73FF809E04888FEF78BFB002842
:1055100004D001220169920511430161002010BDF0
:10552000481A002064070000F1B5FFB085B047209D
:105530000190002069460880534854490068471884
:105540008498FEF76FFB0290002874D0B968083782
:105550004FE0684600880D4604AC20186B460222D6
:10556000283100F0C5FD68460088294620186B46A2
:1055700001222C3100F0BCFD2E462036307B6946DE
:105580000128098804A809D040186B461022294632
:10559000083100F0ADFD01902C6A27E040186B4601
:1055A0000222F4E76946098804A8401821466B46A0
:1055B00002221C3100F09CFD6946098804A84018AD
:1055C00021466B460122233100F092FD2320005D2D
:1055D00069460128098804A830D0401821466B4646
:1055E0001022083100F084FD01902468B442D9D122
:1055F0002968B942ADD1019800281CD168460088BD
:1056000081070AD0224A011D11406A4611800A1AF8
:1056100004A908180B21FAF7E4FE029800880CF0A0
:1056200047FB002807D1849869460005000D04AAAD
:1056300009880AF07DF87FB006B0F0BD4018214619
:105640006B460222083100F053FD01902089114978
:105650008842CAD120460299FEF75CFF4000A1694A
:1056600003906A460918128804A880186B46022223
:1056700000F03EFD0190A169039802220818002164
:10568000FAF7AFFEB1E70000481A002064070000F7
:10569000FCFF000002290000F0B5074617480E463F
:1056A00000683D2149014018007B85B01D46144625
:1056B000C00706D003A9384600F018FA00280AD11E
:1056C00002E0472005B0F0BD04AA3046039900F07F
:1056D000FDF9002801D06020F4E704992288608851
:1056E0000968002A00D0088C32466E4631C6032372
:1056F0003946002000F004F8E4E70000481A0020D2
:10570000FFB5002099B0239A0B9012900546149093
:10571000064615901C46DB480B460068DA49229F76
:10572000411803910021089109915188069111882F
:105730000A913D2149014018007BC00706D00FA9FE
:10574000184600F0D3F900280AD102E047201DB026
:10575000F0BD10AA0F991B9800F0B8F9002801D0ED
:105760006020F4E71998002803D0600701D50120D4
:1057700000E000201390A007800F1C901098179055
:105780002030C078012840D11798C04B0189994238
:10579000F9D11798069904680A98228C4118914209
:1057A00033D82046203016908078012816D0E08B20
:1057B00004901798806900788006800F7ED0039847
:1057C00040301890007A800778D51C980028F5D0D2
:1057D000AE4F0F99FF372031206814E0BA4214D33E
:1057E000B942DDD80497E4E70389A84A934203D17C
:1057F0002322125C012A08D0BB4203D12322125C6F
:10580000012A03D000688842EED134E105900028D7
:10581000FBD09C480921026809025118C96E002773
:10582000009162E0780100990390085A01055AD06E
:105830001999002901D0884255D105997A008B69C0
:10584000511C595C9A5C0902891889B20D9189072B
:1058500049D0022205990EF0ADFF002804D0199816
:10586000002840D0652072E7002008A9C8551C9880
:10587000C00718D0179880690078C00613D50D9816
:10588000C00710D00120C8550543009A039880181E
:105890004088159A904206D91590009A0398105A9C
:1058A0000005000D14901C9880071CD5179880697E
:1058B0000078800617D50D98800700E083E012D5A8
:1058C0000220CA5D05430243CA5500990398401857
:1058D00040881599884206D9159000990398085A6E
:1058E0000005000D14907F1CFFB266480068A030D0
:1058F000037BBB4296D8002D65D01898007A00062D
:105900005FD460480168092000020818C16E0020B9
:105910001BE042018E5A360515D0AE070BD556183E
:105920003669B7070DD408AF3F5CBF0703D536070C
:1059300001D546200BE7EE0705D05218127CD2079E
:1059400001D0432003E7401CC0B28342E1D8159840
:10595000C01E86B20498864200D90646A8070FD515
:1059600020220020149907F045FB129000287DD0DA
:10597000F01C82B20021129800F0F4F8002811D136
:10598000E80720D020220020149907F033FB0B9069
:10599000002807D0F01C82B200210B9800F0E2F83A
:1059A000002810D08020FEF725FE1298002802D093
:1059B000002107F07BFB0B98002802D0002107F0A4
:1059C00075FB6420C3E6A1690A98069A0818249911
:1059D000FAF703FD16988078012801D10498E08336
:1059E000002D46D0274B0920196800020818C16E07
:1059F000002008AA0CE04301CF5A3F0506D05F18EB
:105A0000BC463B69175C3B4367463B61401CC0B2E8
:105A10001C4B1B68A0331B7B8342ECD8A8070DD519
:105A200012980090F01C82B221461C310220A3691A
:105A3000FEF7ABFB0220129900F076FAE80718D0C7
:105A40000B980090F61C2146B2B21C310120A369CC
:105A5000FEF79BFB1398002805D00B988021C07C93
:105A600008430B99C87401200B9900E005E000F091
:105A70005BFA00206BE6422069E68020FEF7BAFD63
:105A80009FE70000481A0020640700000328000078
:105A9000F0B58468083015E0258D8D4203D114607F
:105AA00018600120F0BD26461C602036256A06E0FD
:105AB000AF8B8F4202D102201560F0BD2D68B54238
:105AC000F6D124688442E7D10020F0BD10B50B6AFE
:105AD000203106E09C8B844202D10020136010BD6F
